:060000000A128A11122809
:10000800FE00030E83120313B8000408B9000A089F
:10001800BA007F08BB000A128A11B92A0A128A118B
:10002800EF2F0A30831603134E02031C1C281D28C9
:100038005B285430A3000B30A200E430A10000304C
:10004800A0004D08A7004C08A6004B08A5004A08C8
:10005800A4000A128A1526250A128A118316031388
:100068002308CD002208CC002108CB002008CA00B4
:100078003B30BF009A30BE00CA30BD000030BC0023
:100088004D08C3004C08C2004B08C1004A08C00014
:100098000A128A1584250A128A11831603133C084A
:1000A800303E0A128A11F3250A128A115B28093098
:1000B800831603134E02031C62286328A1283B30D1
:1000C800A3009A30A200CA30A1000030A0004D0859
:1000D800A7004C08A6004B08A5004A08A4000A126D
:1000E8008A1526250A128A11831603132308CD00C0
:1000F8002208CC002108CB002008CA000530BF0028
:10010800F530BE00E130BD000030BC004D08C30032
:100118004C08C2004B08C1004A08C0000A128A15E0
:1001280084250A128A11831603133C08303E0A12EA
:100138008A11F3250A128A11A1280830831603139D
:100148004E02031CA828A928E7280530A300F5308B
:10015800A200E130A1000030A0004D08A7004C0823
:10016800A6004B08A5004A08A4000A128A152625ED
:100178000A128A11831603132308CD002208CC0023
:100188002108CB002008CA000030BF009830BE000C
:100198009630BD008030BC004D08C3004C08C2003A
:1001A8004B08C1004A08C0000A128A1584250A12A1
:1001B8008A11831603133C08303E0A128A11F3256C
:1001C8000A128A11E7280730831603134E02031C0C
:1001D800EE28EF282D290030A3009830A200963091
:1001E800A1008030A0004D08A7004C08A6004B08CD
:1001F800A5004A08A4000A128A1526250A128A119F
:10020800831603132308CD002208CC002108CB0055
:100218002008CA000030BF000F30BE004230BD00C9
:100228004030BC004D08C3004C08C2004B08C10058
:100238004A08C0000A128A1584250A128A118316F0
:1002480003133C08303E0A128A11F3250A128A1158
:100258002D290630831603134E02031C3429352931
:1002680073290030A3000F30A2004230A1004030B3
:10027800A0004D08A7004C08A6004B08A5004A0896
:10028800A4000A128A1526250A128A118316031356
:100298002308CD002208CC002108CB002008CA0082
:1002A8000030BF000130BE008630BD00A030BC0069
:1002B8004D08C3004C08C2004B08C1004A08C000E2
:1002C8000A128A1584250A128A11831603133C0818
:1002D800303E0A128A11F3250A128A117329053051
:1002E800831603134E02031C7A297B29B92900308F
:1002F800A3000130A2008630A100A030A0004D0864
:10030800A7004C08A6004B08A5004A08A4000A123A
:100318008A1526250A128A11831603132308CD008D
:100328002208CC002108CB002008CA000030BF00FA
:100338000030BE002730BD001030BC004D08C3009F
:100348004C08C2004B08C1004A08C0000A128A15AE
:1003580084250A128A11831603133C08303E0A12B8
:100368008A11F3250A128A11B92904308316031356
:100378004E02031CC029C129FF290030A300003008
:10038800A2002730A1001030A0004D08A7004C089B
:10039800A6004B08A5004A08A4000A128A152625BB
:1003A8000A128A11831603132308CD002208CC00F1
:1003B8002108CB002008CA000030BF000030BE0072
:1003C8000330BD00E830BC004D08C3004C08C20033
:1003D8004B08C1004A08C0000A128A1584250A126F
:1003E8008A11831603133C08303E0A128A11F3253A
:1003F8000A128A11FF290330831603134E02031CC5
:10040800062A072A452A0030A3000030A20003303C
:10041800A100E830A0004D08A7004C08A6004B0832
:10042800A5004A08A4000A128A1526250A128A116C
:10043800831603132308CD002208CC002108CB0023
:100448002008CA000030BF000030BE000030BD00E8
:100458006430BC004D08C3004C08C2004B08C10002
:100468004A08C0000A128A1584250A128A118316BE
:1004780003133C08303E0A128A11F3250A128A1126
:10048800452A0230831603134E02031C4C2A4D2AB8
:100498008B2A0030A3000030A2000030A100643095
:1004A800A0004D08A7004C08A6004B08A5004A0864
:1004B800A4000A128A1526250A128A118316031324
:1004C8002308CD002208CC002108CB002008CA0050
:1004D8000030BF000030BE000030BD000A30BC0054
:1004E8004D08C3004C08C2004B08C1004A08C000B0
:1004F8000A128A1584250A128A11831603133C08E6
:10050800303E0A128A11F3250A128A118B2A8316A1
:1005180003134E08031D912AB82A0030A3000030A7
:10052800A2000030A1000A30A0004D08A7004C0826
:10053800A6004B08A5004A08A4000A128A15262519
:100548000A128A11831603132308CD002208CC004F
:100558002108CB002008CA004A08303E0A128A1136
:10056800F3250A128A11B82A0800C301C401C5017B
:10057800C6010030CA000030C9000030C800003091
:10058800C7000030C2000030C1000030C000003099
:10059800BF000030CE000030CD000030CC0000306D
:1005A800CB00BC01BD01BE010C1CDB2ADC2A772C68
:1005B8000C1001300A128A15E0260A128A118312D9
:1005C8000313A400A5012408C5002508C6000030AF
:1005D8000A128A15E0260A128A1183120313A4004C
:1005E800A5012408C3002508C4004509A40046093C
:1005F800A500A40A0319A50A43082407C70044084C
:100608000318440A2507C800C901C81BC9034908BB
:10061800CA004F084707A4000030031801305007EC
:10062800A6010318A60A4807A5000318A60A510838
:100638002607A7010318A70A4907A6000318A70A4F
:10064800520827074A07A7002708D2002608D10022
:100658002508D0002408CF004708A4004808A500B2
:100668004908A6004A08A7005309A8005409A90088
:100678005509AA005609AB00A80A0319A90A0319C3
:10068800AA0A0319AB0A2808A40729080318290F7E
:100698004E2B4F2BA5072A0803182A0F542B552B2E
:1006A800A6072B0803182B0AA7072708C200260845
:1006B800C1002508C0002408BF008316031358088A
:1006C80083120313A400A501A601A7012708F300BC
:1006D8002608F2002508F1002408F0004208F70077
:1006E8004108F6004008F5003F08F4000A128A1590
:1006F80090240A128A11700883120313A800710843
:10070800A9007208AA007308AB00831603135908DE
:1007180083120313AC00AD01AE01AF012F08F30043
:100728002E08F2002D08F1002C08F0005208F700FE
:100738005108F6005008F5004F08F4000A128A150F
:1007480090240A128A11700883120313B0007108EA
:10075800B1007208B2007308B300831603135A0875
:1007680083120313B400B501B601B7013708F300CB
:100778003608F2003508F1003408F0004A08F7009E
:100788004908F6004808F5004708F4000A128A15D7
:1007980090240A128A11700883120313B007710893
:1007A8000318710FD82BD92BB10772080318720FD1
:1007B800DE2BDF2BB20773080318730AB307300860
:1007C800A80731080318310FEA2BEB2BA9073208C9
:1007D8000318320FF02BF12BAA0733080318330A3A
:1007E800AB072B08CE002A08CD002908CC00280822
:1007F800CB004E08803AFF000030803A7F02031D8C
:100808000F2C00304D02031D0F2C01304C02031D2C
:100818000F2C00304B02031C122C132C1C2C003004
:10082800CE000030CD000030CC00FF30CB003C2C97
:100838004E08803AFF00FF30803A7F02031D2E2CBD
:10084800FF304D02031D2E2CFF304C02031D2E2CB1
:1008580001304B020318312C322C3C2CFF30CE00D7
:10086800FF30CD00FF30CC000130CB003C2C3C2CBD
:100878004E08803AFF000030803A7F02031D4E2C5C
:1008880000304D02031D4E2C00304C02031D4E2C2F
:1008980001304B02031C512C522C592C4B080A12C4
:1008A8008A155D230A128A116C2CCE1F5C2C5D2CD4
:1008B800652C4B03FF3A0A128A1565230A128A111E
:1008C8006C2C0A128A1557230A128A116C2C6C2C6C
:1008D800831203134A08D6004908D5004808D400F3
:1008E8004708D300772C3B08FF003A088A003908EC
:1008F8008400380E8300FE0E7E0E09000030831639
:100908000313D7000030D6000030D5000030D400E3
:10091800013086008701FF308500831203138601AA
:1009280087010C30970005309200FF3083160313BF
:1009380092008312031395014030831603139F001E
:100948000130831203139F0001300A128A11D52641
:100958000A128A1102300A128A11D5260A128A113D
:1009680006300A128A11D5260A128A110C300A1288
:100978008A11D5260A128A1138300A128A11D52608
:100988000A128A110A128A156D230A128A11003076
:100998000A128A152E240A128A1101300A128A11A3
:1009A800B7270A128A110B300A128A152E240A1246
:1009B8008A110E300A128A11B7270A128A111430C6
:1009C8000A128A152E240A128A110B300A128A1169
:1009D800B7270A128A111A300A128A152E240A1207
:1009E8008A1108300A128A11B7270A128A11FC2CB8
:1009F800003083160313BF000030BE000030BD0076
:100A0800FF30BC0000300A128A1563270A128A11C7
:100A180083160313CF00D001D101D2015208B200CE
:100A28005108B1005008B0004F08AF000030B600C0
:100A38000030B5000E30B4001030B3000A128A1529
:100A4800DA240A128A11831603133208C300310804
:100A5800C2003008C1002F08C0000A128A15842578
:100A68000A128A11831603133F08D7003E08D600DE
:100A78003D08D5003C08D40006300A128A152E24F9
:100A88000A128A11831603135708CD005608CC00A2
:100A98005508CB005408CA000430CF004F08CE00D8
:100AA8000A128A1115200A128A1102300A128A15AE
:100AB80063270A128A1183160313CF004F08DA003E
:100AC8000D300A128A152E240A128A11831603136E
:100AD8005A08CF00D001D101D2015208CD005108E7
:100AE800CC005008CB004F08CA000330D30053088D
:100AF800CE000A128A1115200A128A1103300A122E
:100B08008A1563270A128A1183160313CF004F0828
:100B1800D90016300A128A152E240A128A11831651
:100B280003135908CF00D001D101D2015208CD00DA
:100B38005108CC005008CB004F08CA000330D3003E
:100B48005308CE000A128A1115200A128A1104309D
:100B58000A128A1563270A128A1183160313CF0013
:100B68004F08D8001C300A128A152E240A128A113E
:100B7800831603135808CF00D001D101D2015208BF
:100B8800CD005108CC005008CB004F08CA000330F4
:100B9800D3005308CE000A128A1115200A128A11AE
:100BA800831203130618D92DDA2DFC2CDC2DDC2D2D
:100BB800061CDF2DE02DDC2DE12D8F018E0131305B
:100BC80090000C10831603130C140B178B17EC2DC5
:100BD800EC2DFC2CFC2CFC2C0A128A1112288316F2
:100BE8000313AA0083120313861783160313AB019A
:100BF80008302B02031C012E022E042EC22EC22EF8
:100C08002A08A8002B0A0A2E0310A80CFF3E031D71
:100C1800082E28080139A9002908AC00992E2C08AB
:100C2800013A031D182E192E1D2E83120313861642
:100C3800222E831203138612222E222E83160313CA
:100C48002C08013A031D292E2A2E2E2E8312031357
:100C58000616332E831203130612332E332E8316F1
:100C680003132C08013A031D3A2E3B2E3F2E831204
:100C780003138615442E831203138611442E442E23
:100C8800831603132C08013A031D4B2E4C2E502EAD
:100C9800831203130615552E831203130611552EBE
:100CA800552E831603132C08013A031D5C2E5D2E66
:100CB800612E831203138614662E83120313861083
:100CC800662E662E831603132C08013A031D6D2E1B
:100CD8006E2E722E831203138716772E8312031338
:100CE8008712772E772E831603132C08013A031DDB
:100CF8007E2E7F2E832E831203130716882E8312CF
:100D080003130712882E882E831603132C08013A22
:100D1800031D8F2E902E942E831203138715B52E44
:100D2800831203138711B52EB52E831603132B08D0
:100D3800003A0319132E013A0319222E033A031914
:100D4800332E013A0319442E073A0319552E013A56
:100D58000319662E033A0319772E013A0319882ED0
:100D6800B52E013083160313A8002808AB070830F6
:100D78002B02031CC02EC12E042EC22E0030A3004D
:100D88000030A2000030A1003230A0000A128A15FB
:100D98005E240A128A110A128A1583230A128A11FA
:100DA800080083160313AA008312031386138316FD
:100DB8000313AB0108302B02031CE32EE42EE62EAE
:100DC800A42FA42F2A08A8002B0AEC2E0310A80C85
:100DD800FF3E031DEA2E28080139A9002908AC00A6
:100DE8007B2F2C08013A031DFA2EFB2EFF2E8312AF
:100DF80003138616042F831203138612042F042F5D
:100E0800831603132C08013A031D0B2F0C2F102FE8
:100E1800831203130616152F831203130612152FB8
:100E2800152F831603132C08013A031D1C2F1D2FA1
:100E3800212F831203138615262F8312031386117D
:100E4800262F262F831603132C08013A031D2D2F56
:100E58002E2F322F831203130615372F83120313F5
:100E68000611372F372F831603132C08013A031D59
:100E78003E2F3F2F432F831203138614482F8312CC
:100E880003138610482F482F831603132C08013AA2
:100E9800031D4F2F502F542F831203138716592FDA
:100EA800831203138712592F592F831603132C0803
:100EB800013A031D602F612F652F83120313071654
:100EC8006A2F8312031307126A2F6A2F83160313DC
:100ED8002C08013A031D712F722F762F83120313EA
:100EE8008715972F831203138711972F972F831630
:100EF80003132B08003A0319F52E013A0319042F9E
:100F0800033A0319152F013A0319262F073A031933
:100F1800372F013A0319482F033A0319592F013A79
:100F280003196A2F972F013083160313A800280886
:100F3800AB0708302B02031CA22FA32FE62EA42FE9
:100F48000030A3000030A2000030A1003230A00021
:100F58000A128A155E240A128A110A128A15832334
:100F68000A128A11080083160313AF00AE01CF2FAF
:100F78002F0884000A128A1500200A128A110A1200
:100F88008A11F3250A128A11013083160313AD0062
:100F98002D08AF07CF2F2F08031DD32FE12F2F08C0
:100FA80084000A128A1500200A128A110038031DCB
:100FB800DE2FDF2FBC2FE12FE12F0030A300003000
:100FC800A2000130A1002C30A0000A128A155E246C
:100FD8000A128A110800CF01D001D101D201D30130
:100FE800D401D501D60183160313D801D901DA013A
:100FF80083010A128A11822C08308A000408840AA4
:101008008207003441344E3447344C3445343D343F
:10101800003444343D34003449343D3400345034D1
:041028003D3400341F
:1016AE00831203138714071495010800F0008312A8
:1016BE00031387100714700895000800F0008312BA
:1016CE0003138714071070089500080001300A12E2
:1016DE008A11D5260A128A15003083160313A30029
:1016EE000030A2000230A1005830A0000A128A1564
:1016FE005E240A128A15080083120313061700309F
:10170E0083160313A3000030A2000030A100323074
:10171E00A0000A128A155E240A128A158312031378
:10172E000613003083160313A3000030A20000300E
:10173E00A1003230A0000A128A155E240A128A1500
:10174E000800F401F501AB2B701CAE2BAF2BB52BA3
:10175E007208F4070318F50A7308F5070130031031
:10176E00F20DF30DFF3E031DB62B01300310F10CED
:10177E00F00CFF3E031DBD2B71087004031DC82B1A
:10178E00C92BAB2BCA2B7508F101F1077408F001B8
:10179E00F007D12B080083160313A401A501D72B44
:1017AE00201CDA2BDB2BE12B2208A4070318A50A39
:1017BE002308A50701300310A20DA30DFF3E031D44
:1017CE00E22B01300310A10CA00CFF3E031DE92BF0
:1017DE0021082004031DF42BF52BD72BF62B2508FF
:1017EE00A101A1072408A001A007FD2B0800730882
:1017FE00720471047004031D052C062C082C2D2C6C
:10180E002D2C0130F4000030F5000030F6000030D1
:10181E00F7007408F0027508031C750F172C182CAE
:10182E00F1027608031C760F1D2C1E2CF20277088F
:10183E00031C770F232C242CF302730872047104FB
:10184E007004031D2B2C2C2C082C2D2C0800831619
:10185E000313AE0010302E020318362C372C3F2CFB
:10186E002E08803E0A128A11D5260A128A154E2C8F
:10187E00831603132E08EC3EAD002D08AE002E0885
:10188E00C03E0A128A11D5260A128A154E2C003035
:10189E0083160313A3000030A2000030A100C8304D
:1018AE00A0000A128A155E240A128A1508008316F1
:1018BE0003132308220421042004031D672C682C23
:1018CE006A2C8F2C8F2C0130A4000030A500003024
:1018DE00A6000030A7002408A0022508031C250F2F
:1018EE00792C7A2CA1022608031C260F7F2C802C23
:1018FE00A2022708031C270F852C862CA30223087F
:10190E00220421042004031D8D2C8E2C6A2C8F2C76
:10191E0008000030FC000030FB000030FA00003000
:10192E00F900992C701C9C2C9D2CB52C7408F90771
:10193E00750803110318013E0319A62CFA07760841
:10194E0003110318013E0319AD2CFB077708031191
:10195E000318013E0319B42CFC07B52C0130F80016
:10196E000310F40DF50DF60DF70DF80BB72C013035
:10197E000310F30CF20CF10CF00CFF3E031DBF2C08
:10198E007308720471047004031DCE2CCF2C992C95
:10199E00D02C7C08F3007B08F2007A08F10079085D
:1019AE00F000D92C0800003083160313BB00003062
:1019BE00BA000030B9000030B800E52C2F1CE82C1E
:1019CE00E92C012D3308B807340803110318013E22
:1019DE000319F22CB907350803110318013E031938
:1019EE00F92CBA07360803110318013E0319002D0E
:1019FE00BB07012D0130B7000310B30DB40DB50DAB
:101A0E00B60DB70B032D01300310B20CB10CB00C98
:101A1E00AF0CFF3E031D0B2D3208310430042F0492
:101A2E00031D1A2D1B2DE52C1C2D3B08B2003A0868
:101A3E00B1003908B0003808AF00252D0800831614
:101A4E000313230822042104200403192F2D302D03
:101A5E007A2DA9010314A90D422D0130A8000310FF
:101A6E00A00DA10DA20DA30DA80B362D0130A800BF
:101A7E002808A907422DA31F452D462D342D482D8C
:101A8E00482D23082702031D562D22082602031D6A
:101A9E00562D21082502031D562D20082402031C55
:101AAE00592D5A2D692D2008A4022108031C210F3F
:101ABE00A5022208031C220FA6022308031C230FD3
:101ACE00A702692D01300310A30CA20CA10CA00CCF
:101ADE00FF3E031D6A2D0130A902031D772D782DBF
:101AEE00482D7A2D7A2D2708A3002608A200250856
:101AFE00A1002408A000832D0800003083160313D4
:101B0E00C8000030C7000030C6000030C5003F08D6
:101B1E003E043D043C040319952D962DEA2DC90172
:101B2E000314C90DA82D0130C4000310BC0DBD0D4A
:101B3E00BE0DBF0DC40B9C2D0130C4004408C90757
:101B4E00A82DBF1FAB2DAC2D9A2DAE2DAE2D013075
:101B5E00C4000310C50DC60DC70DC80DC40BB02DA6
:101B6E003F084302031DC52D3E084202031DC52D2D
:101B7E003D084102031DC52D3C084002031CC82D23
:101B8E00C92DD92D3C08C0023D08031C3D0FC102D2
:101B9E003E08031C3E0FC2023F08031C3F0FC30248
:101BAE004514D92D01300310BF0CBE0CBD0CBC0C5E
:101BBE00FF3E031DDA2D0130C902031DE72DE82D6E
:101BCE00AE2DEA2DEA2D4808BF004708BE00460894
:101BDE00BD004508BC00F32D080083120313A101BC
:101BEE00F71FFA2DFB2D042EF609F709F60A031935
:101BFE00F70AA1010314A10D042EF91F072E082EBA
:101C0E00122EF809F909F80A0319F90A0130FA0037
:101C1E007A08A106122EA201A301770876040319F1
:101C2E00192E1A2E582EA0010314A00D2A2E0130A3
:101C3E000310F60DF70DFF3E031D1F2E0130FA00A7
:101C4E007A08A0072A2EF71F2D2E2E2E1E2E302E8E
:101C5E00302E01300310A20DA30DFF3E031D312EB9
:101C6E0077087902031D3D2E76087802031C402E5C
:101C7E00412E492E7608F8027708031CF903F90263
:101C8E002214492E01300310F70CF60CFF3E031DF3
:101C9E004A2E0130A002031D552E562E302E582EE0
:101CAE00582E2108031D5C2E622EA209A309A20A3A
:101CBE000319A30A622E2308F701F7072208F6017B
:101CCE00F607692E080083160313AC01A71F702EAA
:101CDE00712E7A2EA609A709A60A0319A70AAC0126
:101CEE000314AC0D7A2EA91F7D2E7E2E882EA809E8
:101CFE00A909A80A0319A90A0130AA002A08AC06E4
:101D0E00882EAD01AE012708260403198F2E902EC2
:101D1E00CE2EAB010314AB0DA02E01300310A60D79
:101D2E00A70DFF3E031D952E0130AA002A08AB0712
:101D3E00A02EA71FA32EA42E942EA62EA62E0130C3
:101D4E000310AD0DAE0DFF3E031DA72E2708290271
:101D5E00031DB32E26082802031CB62EB72EBF2E47
:101D6E002608A8022708031CA903A9022D14BF2EBA
:101D7E0001300310A70CA60CFF3E031DC02E013030
:101D8E00AB02031DCB2ECC2EA62ECE2ECE2E2C0885
:101D9E00031DD22ED82EAD09AE09AD0A0319AE0A17
:101DAE00D82E2E08A701A7072D08A601A607DF2EFD
:101DBE000800FD00FD08031DE52EE62EEB2E01307A
:101DCE00831203139F001B2F7D08013A031DF02E73
:101DDE00F12EF62E0930831203139F001B2F7D0860
:101DEE00023A031DFB2EFC2E012F1130831203131A
:101DFE009F001B2F7D08033A031D062F072F0C2F64
:101E0E001930831203139F001B2F7D08043A031D04
:101E1E00112F122F1B2F2130831203139F001B2F04
:101E2E001B2F1B2F1B2F1B2F0030F3000030F20037
:101E3E000030F1006430F0000A128A15FE230A12F7
:101E4E008A15831203131F152C2F1F192F2F302FB6
:101E5E002C2F312F7D08031D352F3C2F7D08013A85
:101E6E00031D3A2F3B2F402F3C2F1E08622F622F4F
:101E7E00622FFF30F6000030F7001E08FB00FC0159
:101E8E007B08F0007C08F1006430F2000030F300B3
:101E9E000A128A15A8230A128A157108F901F90780
:101EAE007008F801F8070A128A15F4250A128A1525
:101EBE007608622F622F080083160313CC00CC081D
:101ECE00031D6A2F6B2F702F0130831203139F0097
:101EDE00A82F831603134C08013A031D772F782F72
:101EEE007D2F0930831203139F00A82F831603132F
:101EFE004C08023A031D842F852F8A2F113083122E
:101F0E0003139F00A82F831603134C08033A031DD7
:101F1E00912F922F972F1930831203139F00A82F02
:101F2E00831603134C08043A031D9E2F9F2FA82FD0
:101F3E002130831203139F00A82FA82FA82FA82F9C
:101F4E00A82F003083160313A3000030A200003028
:101F5E00A1006430A0000A128A155E240A128A15A6
:101F6E00831203131F15BB2F1F19BE2FBF2FBB2F9D
:101F7E00C02F831603134C08031DC62FCD2F4C08FC
:101F8E00013A031DCB2FCC2FD32FCD2F831203134A
:101F9E001E08FF2FFF2FFF2FFF3083160313A600FF
:101FAE000030A700831203131E0883160313CA0002
:101FBE00CB014A08A0004B08A1006430A2000030FB
:101FCE00A3000A128A15D2230A128A158316031346
:101FDE002108A901A9072008A801A8070A128A1535
:101FEE006A260A128A15831603132608FF2FFF2F5F
:021FFE000800D9
:02400E00323F3F
:00000001FF
