:0600000000308A00122806
:10000800FF00030883120317CF000408D0000A0872
:10001800D1007E08D2000A128A11BA2C83177330D5
:1000280084007E300A128A111F200A128A11830165
:100038000A128A11272864008001840A0406031919
:100048000034040620288312031700309300003080
:1000580092000030910000309000013083160313A5
:10006800860003100030031801308700FF30850038
:1000780003108312031300300318013086000310A5
:1000880000300318013087000C30970005309200CB
:1000980083160313FF3092000310831203130030FA
:1000A8000318013095004030831603139F00013078
:1000B800831203139F0001300A128A11B9260A120B
:1000C8008A1102300A128A11B9260A128A110630D8
:1000D8000A128A11B9260A128A110C300A128A11D8
:1000E800B9260A128A1138300A128A11B9260A1258
:1000F8008A110A128A1532230A128A1100300A124A
:100108008A15EF230A128A1101300A128A151D2452
:100118000A128A110B300A128A15EF230A128A1161
:100128000B300A128A151D240A128A1114300A1279
:100138008A15EF230A128A110E300A128A151D2415
:100148000A128A111A300A128A15EF230A128A1122
:1001580008300A128A151D240A128A1100300A1260
:100168008A150E260A128A11831203179400950124
:100178009601970117089C0016089B0015089A001D
:10018800140899000030A00000309F000E309E0037
:1001980010309D000A128A159A240A128A118312B5
:1001A80003171C08A1001B08A0001A089F001908C3
:1001B8009E000030A5000030A4000030A300FF30EE
:1001C800A2000A128A1191270A128A1183120317B0
:1001D80021089300200892001F0891001E08900033
:1001E80006300A128A15EF230A128A110430831284
:1001F8000317940014089D0013089C0012089B0024
:1002080011089A00100899000A128A111F220A126E
:100218008A1102300A128A150E260A128A118312CE
:10022800031794008312031383120317140883120D
:100238000313FC000D300A128A15EF230A128A11E3
:10024800033083120317940014089D0083120313CC
:100258007C088312031795009601970198011808E6
:100268009C0017089B0016089A00150899000A12A6
:100278008A111F220A128A1103300A128A150E26C1
:100288000A128A118312031794008312031383122C
:100298000317140883120313FD0016300A128A1577
:1002A800EF230A128A1103308312031794001408EB
:1002B8009D00831203137D0883120317950096018E
:1002C8009701980118089C0017089B0016089A00C7
:1002D800150899000A128A111F220A128A1104307D
:1002E8000A128A150E260A128A118312031794001D
:1002F8008312031383120317140883120313FB00DA
:100308001C300A128A15EF230A128A11033083124D
:100318000317940014089D00831203137B088312AB
:100328000317950096019701980118089C00170873
:100338009B0016089A00150899000A128A111F22B4
:100348000A128A11831203130618AB29AC29C6298D
:10035800AD29061CB029B129AD29031000300318B6
:1003680001308F0003100030031801308E00313047
:1003780090000C10831603130C14831203130B172D
:100388008B17C529B2280A128A111228590858044D
:1003980057045604031DD129D229D329F72901303E
:1003A800A6000030A7000030A8000030A9002608E9
:1003B800D6022708031C270FE229E329D7022808B9
:1003C800031C280FE829E929D8022908031C290F4A
:1003D800EE29EF29D9025908580457045604031D79
:0803E800F629F729D3290800CA
:10040000FE00FE1F082A83137E18831700080800C9
:100410000408FE0002308A007E088207003441345E
:100420004E3447344C3445343D34003444343D3448
:10043000003450343D34003449343D3400340A3003
:100440001D02031C242A252A622A5430A5000B30E1
:10045000A400E430A3000030A2001C08A1001B0887
:10046000A0001A089F0019089E000A128A15DE24AF
:100470000A128A118312031721089C0020089B008E
:100480001F089A001E0899003B30A5009A30A4006E
:10049000CA30A3000030A2001C08A1001B08A00065
:1004A0001A089F0019089E000A128A1191270A1241
:1004B0008A11831203171E08303E0A128A152A2752
:1004C0000A128A110930831203171D02031C692ABC
:1004D0006A2AA72A3B30A5009A30A400CA30A3009C
:1004E0000030A2001C08A1001B08A0001A089F00F1
:1004F00019089E000A128A15DE240A128A11831234
:10050000031721089C0020089B001F089A001E0862
:1005100099000530A500F530A400E130A3000030BB
:10052000A2001C08A1001B08A0001A089F001908BF
:100530009E000A128A1191270A128A118312031748
:100540001E08303E0A128A152A270A128A1108301C
:10055000831203171D02031CAE2AAF2AEC2A0530B2
:10056000A500F530A400E130A3000030A2001C0873
:10057000A1001B08A0001A089F0019089E000A127B
:100580008A15DE240A128A118312031721089C009F
:1005900020089B001F089A001E0899000030A50043
:1005A0009830A4009630A3008030A2001C08A1005F
:1005B0001B08A0001A089F0019089E000A128A1141
:1005C00091270A128A11831203171E08303E0A125D
:1005D0008A152A270A128A110730831203171D026F
:1005E000031CF32AF42A312B0030A5009830A40014
:1005F0009630A3008030A2001C08A1001B08A000B8
:100600001A089F0019089E000A128A15DE240A1291
:100610008A118312031721089C0020089B001F08E1
:100620009A001E0899000030A5000F30A400423047
:10063000A3004030A2001C08A1001B08A0001A085B
:100640009F0019089E000A128A1191270A128A1126
:10065000831203171E08303E0A128A152A270A122F
:100660008A110630831203171D02031C382B392B05
:10067000762B0030A5000F30A4004230A30040309C
:10068000A2001C08A1001B08A0001A089F0019085E
:100690009E000A128A15DE240A128A118312031799
:1006A00021089C0020089B001F089A001E08990042
:1006B0000030A5000130A4008630A300A030A200C5
:1006C0001C08A1001B08A0001A089F0019089E0022
:1006D0000A128A1191270A128A11831203171E081F
:1006E000303E0A128A152A270A128A11053083120F
:1006F00003171D02031C7D2B7E2BBB2B0030A50096
:100700000130A4008630A300A030A2001C08A10084
:100710001B08A0001A089F0019089E000A128A15DB
:10072000DE240A128A118312031721089C00200874
:100730009B001F089A001E0899000030A500003099
:10074000A4002730A3001030A2001C08A1001B0841
:10075000A0001A089F0019089E000A128A1191270A
:100760000A128A11831203171E08303E0A128A15D4
:100770002A270A128A110430831203171D02031C50
:10078000C22BC32B002C0030A5000030A400273062
:10079000A3001030A2001C08A1001B08A0001A082A
:1007A0009F0019089E000A128A15DE240A128A1177
:1007B0008312031721089C0020089B001F089A0041
:1007C0001E0899000030A5000030A4000330A300EB
:1007D000E830A2001C08A1001B08A0001A089F0016
:1007E00019089E000A128A1191270A128A1183128F
:1007F00003171E08303E0A128A152A270A128A1188
:100800000330831203171D02031C072C082C452CF0
:100810000030A5000030A4000330A300E830A2009F
:100820001C08A1001B08A0001A089F0019089E00C0
:100830000A128A15DE240A128A118312031721086C
:100840009C0020089B001F089A001E089900003099
:10085000A5000030A4000030A3006430A2001C08F2
:10086000A1001B08A0001A089F0019089E000A1288
:100870008A1191270A128A11831203171E08303E2B
:100880000A128A152A270A128A11023083120317C4
:100890001D02031C4C2C4D2C8A2C0030A50000306E
:1008A000A4000030A3006430A2001C08A1001B08B3
:1008B000A0001A089F0019089E000A128A15DE245B
:1008C0000A128A118312031721089C0020089B003A
:1008D0001F089A001E0899000030A5000030A400EF
:1008E0000030A3000A30A2001C08A1001B08A000D1
:1008F0001A089F0019089E000A128A1191270A12ED
:100900008A11831203171E08303E0A128A152A27FD
:100910000A128A110130831203171D02031C912C45
:10092000922CB92C0030A5000030A4000030A300A8
:100930000A30A2001C08A1001B08A0001A089F0092
:1009400019089E000A128A15DE240A128A118312DF
:10095000031721089C0020089B001F089A001E080E
:10096000990019088317303E0A128A152A270A129D
:100970008A1108000030AF000030B0000030B10034
:100980000030B2000030BA000030B9000030B800CA
:100990000030B7000030B6000030B5000030B400C1
:1009A0000030B3000030BE000030BD000030BC009D
:1009B0000030BB000030AD000030AE00031000304E
:1009C00003180130AC00831203130C1CE82CE92C33
:1009D000AC2E0C1001300A128A159C260A128A11BC
:1009E00083120317BF00C0013F08B1004008B200E6
:1009F00000300A128A159C260A128A1183120317E4
:100A0000BF00C0013F08AF004008B00031082F020E
:100A1000B7003208031C320A3002B800B901B81B13
:100A2000B9033908BA008312031377088312031736
:100A30003707BF0000300318013083120313780713
:100A400083120317C1010318C10A3807C000031835
:100A5000C10A831203137908831203174107C201E5
:100A60000318C20A3907C1000318C20A831203130C
:100A70007A088312031742073A07C200831203134E
:100A800083120317420883120313FA008312031719
:100A9000410883120313F9008312031740088312DD
:100AA0000313F800831203173F0883120313F700A0
:100AB0008312031783120313730883120317370279
:100AC000BF003808C000831203137408031C740F9E
:100AD00083120317C0023908C1008312031375087B
:100AE000031C750F83120317C1023A08C200831258
:100AF00003137608031C760F83120317C202420801
:100B0000B6004108B5004008B4003F08B3008312A6
:100B1000031383120317831203137A088312031734
:100B2000DA0083120313790883120317D9008312A2
:100B30000313780883120317D8008312031377086E
:100B400083120317D700831203137D088312031740
:100B5000BF00C001C101C2014208D6004108D50052
:100B60004008D4003F08D3000A128A1556240A12FE
:100B70008A11831203175308C3005408C400550890
:100B8000C5005608C6003A08DA003908D900380806
:100B9000D8003708D700831203137C088312031789
:100BA000C700C801C901CA014A08D6004908D500D2
:100BB0004808D4004708D3000A128A1556240A129E
:100BC0008A11831203175308C30754080318540FDC
:100BD000C40755080318550FC50756080318560AC9
:100BE000C6073608DA003508D9003408D8003308BB
:100BF000D700831203137B0883120317CB00CC01A9
:100C0000CD01CE014E08D6004D08D5004C08D400C9
:100C10004B08D3000A128A1556240A128A1183122D
:100C200003174308D30744080318440FD4074508A3
:100C30000318450FD50746080318460AD607560875
:100C4000BE005508BD005408BC005308BB003E0858
:100C5000803ABF0080303F02031D382E00303D0235
:100C6000031D382E01303C02031D382E00303B029C
:100C7000031C3B2E3C2E452E0030BE000030BD0034
:100C80000030BC00FF30BB00622E3E08803ABF003F
:100C90007F303F02031D562EFF303D02031D562EAE
:100CA000FF303C02031D562E01303B020318592E23
:100CB0005A2E622EFF30BE00FF30BD00FF30BC0058
:100CC0000130BB003E08803ABF0080303F02031D68
:100CD000732E00303D02031D732E00303C02031DB5
:100CE000732E01303B02031C762E772E7F2E3B089D
:100CF00083170A128A1518230A128A11902EBE1F12
:100D0000822E832E8B2E3B03FF3A0A128A1525234F
:100D10000A128A11902E0A128A150E230A128A11BB
:100D20008312031783120313831203173A088312E3
:100D30000313F60083120317390883120313F50017
:100D400083120317380883120313F4008312031766
:100D5000370883120313F300831203175208FE00AF
:100D600051088A00500884004F088300FF0E7F0E50
:100D70000900831203179A008312031386130310CA
:100D8000831203170030031801309B00C72E1A0886
:100D900083179D001B0ACE2E03109D0CFF3E031DE2
:100DA000CC2E1D089C0001309D001D089C05572F6E
:100DB0001C088317013A031DDE2EDF2EE32E83125B
:100DC00003138616E62E831203138612831203176B
:100DD0001C088317013A031DEE2EEF2EF32E83120B
:100DE00003130616F62E831203130612831203173B
:100DF0001C088317013A031DFE2EFF2E032F8312BA
:100E000003138615062F831203138611831203170B
:100E10001C088317013A031D0E2F0F2F132F831267
:100E200003130615162F83120313061183120317DB
:100E30001C088317013A031D1E2F1F2F232F831217
:100E400003138614262F83120313861083120317AD
:100E50001C088317013A031D2E2F2F2F332F8312C7
:100E600003138716362F8312031387128312031777
:100E70001C088317013A031D3E2F3F2F432F831277
:100E800003130716462F8312031307128312031747
:100E90001C088317013A031D4E2F4F2F532F831227
:100EA00003138715562F831203138711722F1B0804
:100EB0008317003A0319D82E013A0319E62E033A94
:100EC0000319F62E013A0319062F073A0319162FB4
:100ED000013A0319262F033A0319362F013A031951
:100EE000462F722F0130831203179D001D089B07A8
:100EF00008301B02031C7D2F7E2FC72E0030A5005B
:100F00000030A4000030A3003230A2000A128A157B
:100F1000C1230A128A110A128A1548230A128A1159
:100F200008000030AA000030A9000030A8000030FE
:100F3000A70025082404230422040319A02FA12FAD
:100F4000EF2FA6010314A60DB22F0130AB00031042
:100F5000A20DA30DA40DA50DAB0BA72F0130AB0067
:100F60002B08A607A51FB52FB62FA52F0130AB0064
:100F70000310A70DA80DA90DAA0DAB0BB82F2508BE
:100F80002102031DCD2F24082002031DCD2F23088D
:100F90001F02031DCD2F22081E02031CD02FD12FAC
:100FA000E02F22089E022308031C230F9F0224081F
:100FB000031C240FA0022508031C250FA1022714DF
:100FC00001300310A50CA40CA30CA20CFF3E031DC2
:100FD000E12F0130A602031DEE2FEF2FB62F2A08B6
:100FE000A1002908A00028089F0027089E00F82FCC
:020FF0000800F7
:10161C0083120313871407140310003003180130CE
:10162C0095000800D300831203138710071483124C
:10163C000317530883178312031395000800D30074
:10164C00831203138714071083120317530883178D
:10165C00831203139500080001300A128A11B9266F
:10166C000A128A15831203170030A5000030A4005B
:10167C000230A3005830A2000A128A15C1230A12A4
:10168C008A15080083120313061783120317003000
:10169C00A5000030A4000030A3003230A2000A12D2
:1016AC008A15C1230A128A15831203130613831297
:1016BC0003170030A5000030A4000030A300323026
:1016CC00A2000A128A15C1230A128A1508000030DA
:1016DC00A0000030A1001C1C742B752B7B2B1E084A
:1016EC00A0070318A10A1F08A107013003109E0DC3
:1016FC009F0DFF3E031D7C2B013003109D0C9C0C99
:10170C00FF3E031D832B1D081C04031D8E2B8F2BEA
:10171C00712B20089C019C0721089D019D07962B8D
:10172C0008000030DA000030DB00561C9E2B9F2B8B
:10173C00A52B5808DA070318DB0A5908DB07013018
:10174C000310D80DD90DFF3E031DA62B013003103D
:10175C00D70CD60CFF3E031DAD2B57085604031DAA
:10176C00B82BB92B9B2B5A08D601D6075B08D7018F
:10177C00D707C02B08002508240423042204031DCA
:10178C00C82BC92BCA2BEE2B0130A6000030A700AA
:10179C000030A8000030A9002608A2022708031C6C
:1017AC00270FD92BDA2BA3022808031C280FDF2BB9
:1017BC00E02BA4022908031C290FE52BE62BA5021C
:1017CC002508240423042204031DED2BEE2BCA2B25
:1017DC000800831203179900103019020318F72B15
:1017EC00F82B012C19088317803E0A128A11B9268E
:1017FC000A128A150D2C19088317EC3E990019084A
:10180C008317C03E0A128A11B9260A128A1583124E
:10181C0003170030A5000030A4000030A300C8302E
:10182C00A2000A128A15C1230A128A150800831213
:10183C0003179A0003100030031801309900382C5C
:10184C001A0883170A128A1109220A128A150A1217
:10185C008A152A270A128A150130831203179B0056
:10186C001B089A079A08031D3C2C482C1A0883174E
:10187C000A128A1109220A128A150038031D472CF4
:10188C00482C262C0030A5000030A4000130A30009
:10189C002C30A2000A128A15C1230A128A150800DC
:1018AC000030DE000030DD000030DC000030DB00FA
:1018BC00531C612C622C762C5708DB07580803113B
:1018CC000318580A031DDC07590803110318590A99
:1018DC00031DDD075A08031103185A0A031DDE07FE
:1018EC000130A5000310D70DD80DD90DDA0DA50BBD
:1018FC00782C01300310D60CD50CD40CD30CFF3E35
:10190C00031D802C5608550454045304031D8F2CBE
:10191C00902C5E2C5E08D6005D08D5005C08D400C7
:10192C005B08D300992C08000030A4000030A30001
:10193C000030A2000030A100191CA52CA62CBA2C3A
:10194C001D08A1071E08031103181E0A031DA20778
:10195C001F08031103181F0A031DA30720080311F6
:10196C000318200A031DA4070130A50003109D0DC8
:10197C009E0D9F0DA00DA50BBC2C013003109C0CD3
:10198C009B0C9A0C990CFF3E031DC42C1C081B04C9
:10199C001A041904031DD32CD42CA22C24089C004B
:1019AC0023089B0022089A0021089900DD2C0800CE
:1019BC0025082404230422040319E52CE62C2A2DE3
:1019CC00A6010314A60DF72C0130A7000310A20DDD
:1019DC00A30DA40DA50DA70BEC2C0130A700270817
:1019EC00A607A51FFA2CFB2CEA2C25082102031DA7
:1019FC00092D24082002031D092D23081F02031D95
:101A0C00092D22081E02031C0C2D0D2D1B2D220846
:101A1C009E022308031C230F9F022408031C240F7F
:101A2C00A0022508031C250FA10201300310A50CF0
:101A3C00A40CA30CA20CFF3E031D1C2D0130A6020E
:101A4C00031D292D2A2DFB2C2B2D080003100030F3
:101A5C0003180130DA00D91F342D352D3D2DD8094E
:101A6C00D909D80A0319D90ADA010314DA0DD71FD8
:101A7C00402D412D4A2DD609D709D60A0319D70A6C
:101A8C000130A4002408DA060030DC000030DD0050
:101A9C00590858040319532D542D8C2DDB010314B4
:101AAC00DB0D632D01300310D80DD90DFF3E031D46
:101ABC00592D0130A4002408DB07D91F662D672D92
:101ACC00582D01300310DC0DDD0DFF3E031D682D7C
:101ADC0059085702031D742D58085602031C772D04
:101AEC00782D7F2D5808D6025908031CD703D7022E
:101AFC005C1401300310D90CD80CFF3E031D802D53
:101B0C000130DB02031D8B2D8C2D672DDA08031D94
:101B1C00902D952DDC09DD09DC0A0319DD0A5C0822
:101B2C00D601D6075D08D701D7079C2D08000310F6
:101B3C00003003180130A1009F1FA52DA62DAE2D3E
:101B4C009E099F099E0A03199F0AA1010314A10D66
:101B5C009D1FB12DB22DBB2D9C099D099C0A03190B
:101B6C009D0A0130A4002408A1060030A200003018
:101B7C00A3001F081E040319C42DC52DFD2DA001A3
:101B8C000314A00DD42D013003109E0D9F0DFF3EAC
:101B9C00031DCA2D0130A4002408A0079F1FD72DB8
:101BAC00D82DC92D01300310A20DA30DFF3E031D2E
:101BBC00D92D1F081D02031DE52D1E081C02031C38
:101BCC00E82DE92DF02D1E089C021F08031C9D0317
:101BDC009D022214013003109F0C9E0CFF3E031D2E
:101BEC00F12D0130A002031DFC2DFD2DD82DA108D7
:101BFC00031D012E062EA209A309A20A0319A30A8A
:101C0C0022089C019C0723089D019D070D2E0800AE
:101C1C008312031799009908031D152E162E1B2EDF
:101C2C000130831203139F004A2E19088317013ABF
:101C3C00031D212E222E272E0930831203139F0001
:101C4C004A2E19088317023A031D2D2E2E2E332EE1
:101C5C001130831203139F004A2E19088317033A7D
:101C6C00031D392E3A2E3F2E1930831203139F0079
:101C7C004A2E19088317043A031D452E462E4A2E68
:101C8C002130831203139F00831203170030A50029
:101C9C000030A4000030A3006430A2000A128A15A0
:101CAC00C1230A128A15831203131F155D2E1F19E7
:101CBC00602E612E5D2E831203179908031D672E6B
:101CCC006E2E19088317013A031D6D2E6E2E722E7F
:101CDC00831203131E089B2E64309E0000309F005D
:101CEC00831203131E08831203179A009B011A0810
:101CFC009C001B089D000A128A156D230A128A1576
:101D0C00831203171C089C019C071D089D019D074D
:101D1C00FF309E0000309F000A128A159D250A1282
:101D2C008A15831203171C089B2E080083120317B5
:101D3C00D300D308031DA32EA42EA92E0130831289
:101D4C0003139F00D82E53088317013A031DAF2E9F
:101D5C00B02EB52E0930831203139F00D82E5308D2
:101D6C008317023A031DBB2EBC2EC12E11308312D9
:101D7C0003139F00D82E53088317033A031DC72E55
:101D8C00C82ECD2E1930831203139F00D82E530862
:101D9C008317043A031DD32ED42ED82E2130831250
:101DAC0003139F00831203170030D9000030D800B2
:101DBC000030D7006430D6000A128A11CA210A12E8
:101DCC008A15831203131F15EB2E1F19EE2EEF2EFF
:101DDC00EB2E83120317D308031DF52EFC2E53088C
:101DEC008317013A031DFB2EFC2E002F83120313C5
:101DFC001E08292F6430D8000030D9008312031339
:101E0C001E08831203179A009B011A08D6001B08A0
:101E1C00D7000A128A1597230A128A158312031700
:101E2C005608D601D6075708D701D707FF30D80078
:101E3C000030D9000A128A152C250A128A15831231
:101E4C0003175608292F08009E00831203138617C8
:101E5C000310831203170030031801309F00362F34
:101E6C001E088317A1001F0A3D2F0310A10CFF3E73
:101E7C00031D3B2F2108A0000130A1002108A00563
:101E8C00C62F20088317013A031D4D2F4E2F522FBA
:101E9C00831203138616552F831203138612831293
:101EAC00031720088317013A031D5D2F5E2F622F45
:101EBC00831203130616652F831203130612831263
:101ECC00031720088317013A031D6D2F6E2F722FF5
:101EDC00831203138615752F831203138611831235
:101EEC00031720088317013A031D7D2F7E2F822FA5
:101EFC00831203130615852F831203130611831205
:101F0C00031720088317013A031D8D2F8E2F922F54
:101F1C00831203138614952F8312031386108312D6
:101F2C00031720088317013A031D9D2F9E2FA22F04
:101F3C00831203138716A52F8312031387128312A0
:101F4C00031720088317013A031DAD2FAE2FB22FB4
:101F5C00831203130716B52F831203130712831270
:101F6C00031720088317013A031DBD2FBE2FC22F64
:101F7C00831203138715C52F831203138711E12FC7
:101F8C001F088317003A0319472F013A0319552FDD
:101F9C00033A0319652F013A0319752F073A0319F0
:101FAC00852F013A0319952F033A0319A52F013AEE
:101FBC000319B52FE12F013083120317A10021085B
:101FCC009F0708301F02031CEC2FED2F362F00301B
:101FDC00A5000030A4000030A3003230A2000A1289
:101FEC008A15C1230A128A150A128A1548230A1265
:041FFC008A1508003A
:02400E00323F3F
:00000001FF
